{
  "contractName": "charity",
  "abi": [
    {
      "constant": true,
      "inputs": [
        {
          "name": "",
          "type": "uint256"
        }
      ],
      "name": "charitys",
      "outputs": [
        {
          "name": "name",
          "type": "string"
        },
        {
          "name": "description",
          "type": "string"
        },
        {
          "name": "bankAccount",
          "type": "string"
        },
        {
          "name": "bankName",
          "type": "string"
        },
        {
          "name": "id",
          "type": "uint256"
        },
        {
          "name": "hash",
          "type": "bytes32"
        },
        {
          "name": "address_of_charity",
          "type": "address"
        },
        {
          "name": "ether_coins",
          "type": "string"
        }
      ],
      "payable": false,
      "stateMutability": "view",
      "type": "function",
      "signature": "0x6610f9cf"
    },
    {
      "constant": true,
      "inputs": [
        {
          "name": "",
          "type": "uint256"
        }
      ],
      "name": "org",
      "outputs": [
        {
          "name": "name",
          "type": "string"
        },
        {
          "name": "bankAccount",
          "type": "string"
        },
        {
          "name": "bankName",
          "type": "string"
        },
        {
          "name": "id",
          "type": "uint256"
        },
        {
          "name": "hash",
          "type": "bytes32"
        },
        {
          "name": "address_of_organisation",
          "type": "address"
        }
      ],
      "payable": false,
      "stateMutability": "view",
      "type": "function",
      "signature": "0x69e6601c"
    },
    {
      "constant": true,
      "inputs": [],
      "name": "charity_count",
      "outputs": [
        {
          "name": "",
          "type": "uint256"
        }
      ],
      "payable": false,
      "stateMutability": "view",
      "type": "function",
      "signature": "0xacecc149"
    },
    {
      "constant": true,
      "inputs": [],
      "name": "org_count",
      "outputs": [
        {
          "name": "",
          "type": "uint256"
        }
      ],
      "payable": false,
      "stateMutability": "view",
      "type": "function",
      "signature": "0xf3e2236f"
    },
    {
      "inputs": [],
      "payable": false,
      "stateMutability": "nonpayable",
      "type": "constructor",
      "signature": "constructor"
    },
    {
      "anonymous": false,
      "inputs": [
        {
          "indexed": false,
          "name": "name",
          "type": "string"
        },
        {
          "indexed": false,
          "name": "description",
          "type": "string"
        },
        {
          "indexed": false,
          "name": "bankacc",
          "type": "string"
        },
        {
          "indexed": false,
          "name": "bankname",
          "type": "string"
        },
        {
          "indexed": false,
          "name": "id",
          "type": "uint256"
        },
        {
          "indexed": false,
          "name": "hash",
          "type": "bytes32"
        },
        {
          "indexed": false,
          "name": "address_of_charity",
          "type": "address"
        }
      ],
      "name": "charityCreated",
      "type": "event",
      "signature": "0xc400d853a004cae2da192fd25da16bda076bf964492c234711022c4eded0a15d"
    },
    {
      "anonymous": false,
      "inputs": [
        {
          "indexed": false,
          "name": "name",
          "type": "string"
        },
        {
          "indexed": false,
          "name": "bankacc",
          "type": "string"
        },
        {
          "indexed": false,
          "name": "bankname",
          "type": "string"
        },
        {
          "indexed": false,
          "name": "id",
          "type": "uint256"
        },
        {
          "indexed": false,
          "name": "hash",
          "type": "bytes32"
        },
        {
          "indexed": false,
          "name": "address_of_organisation",
          "type": "address"
        }
      ],
      "name": "organisationCreated",
      "type": "event",
      "signature": "0xf7647fcb388924cf9c91cdc76986d9f8c1ced32e868cb341c26e757db1c29d86"
    },
    {
      "constant": false,
      "inputs": [
        {
          "name": "_name",
          "type": "string"
        },
        {
          "name": "_description",
          "type": "string"
        },
        {
          "name": "_bankacc",
          "type": "string"
        },
        {
          "name": "_bankname",
          "type": "string"
        },
        {
          "name": "_address",
          "type": "address"
        },
        {
          "name": "_ether_coins",
          "type": "string"
        }
      ],
      "name": "createCharity",
      "outputs": [
        {
          "name": "",
          "type": "uint256"
        }
      ],
      "payable": false,
      "stateMutability": "nonpayable",
      "type": "function",
      "signature": "0xf0111f26"
    },
    {
      "constant": false,
      "inputs": [
        {
          "name": "_name",
          "type": "string"
        },
        {
          "name": "_bankacc",
          "type": "string"
        },
        {
          "name": "_bankname",
          "type": "string"
        },
        {
          "name": "_address",
          "type": "address"
        }
      ],
      "name": "createOrganisation",
      "outputs": [
        {
          "name": "",
          "type": "uint256"
        }
      ],
      "payable": false,
      "stateMutability": "nonpayable",
      "type": "function",
      "signature": "0xe1af85a5"
    },
    {
      "constant": false,
      "inputs": [
        {
          "name": "add_of_charity",
          "type": "address"
        },
        {
          "name": "add_of_org",
          "type": "address"
        },
        {
          "name": "amount",
          "type": "uint256"
        }
      ],
      "name": "transaction_org_to_charity",
      "outputs": [],
      "payable": false,
      "stateMutability": "nonpayable",
      "type": "function",
      "signature": "0xc5c2d952"
    }
  ],
  "bytecode": "0x60806040526000805560006001553480156200001a57600080fd5b50604080518082018252600d81527f616e616e645f63686172697479000000000000000000000000000000000000006020808301919091528251608081018452605081527f77656c636f6d6520746f20616e616e64277320636861726974792c2074686973818301527f20697320612064656661756c7420636861726974792061732049206372656174818501527f6564207468697320776562207061676500000000000000000000000000000000606082015283518085018552600781527f62616e6b616363000000000000000000000000000000000000000000000000008184015284518086018652600881527f62616e6b6e616d65000000000000000000000000000000000000000000000000818501528551808701909652600186527f30000000000000000000000000000000000000000000000000000000000000009386019390935262000190949192909173ca35b7d915458ef540ade6068dfe2f44e8fa733c9064010000000062000268810204565b50620002616040805190810160405280601281526020017f616e616e645f6f7267616e69736174696f6e00000000000000000000000000008152506040805190810160405280600c81526020017f62616e6b206163636f756e7400000000000000000000000000000000000000008152506040805190810160405280600981526020017f62616e6b206e616d65000000000000000000000000000000000000000000000081525073ca35b7d915458ef540ade6068dfe2f44e8fa733c620006a7640100000000026401000000009004565b5062000a50565b60008054600101815583518551875189516040805191909201909201909201808252601f19601f820116820160200190925288918891889188916060918015620002b9576020820181803883390190505b509050806000805b875181101562000359578781815181101515620002da57fe5b9060200101517f010000000000000000000000000000000000000000000000000000000000000090047f01000000000000000000000000000000000000000000000000000000000000000283838151811015156200033457fe5b906020010190600160f860020a031916908160001a90535060019182019101620002c1565b5060005b8651811015620003f55786818151811015156200037657fe5b9060200101517f010000000000000000000000000000000000000000000000000000000000000090047f0100000000000000000000000000000000000000000000000000000000000000028383815181101515620003d057fe5b906020010190600160f860020a031916908160001a905350600191820191016200035d565b5060005b8551811015620004915785818151811015156200041257fe5b9060200101517f010000000000000000000000000000000000000000000000000000000000000090047f01000000000000000000000000000000000000000000000000000000000000000283838151811015156200046c57fe5b906020010190600160f860020a031916908160001a90535060019182019101620003f9565b5060005b84518110156200052d578481815181101515620004ae57fe5b9060200101517f010000000000000000000000000000000000000000000000000000000000000090047f01000000000000000000000000000000000000000000000000000000000000000283838151811015156200050857fe5b906020010190600160f860020a031916908160001a9053506001918201910162000495565b506000828051906020012090508e6002600080548152602001908152602001600020600001908051906020019062000567929190620009ab565b508d6002600080548152602001908152602001600020600101908051906020019062000595929190620009ab565b508c60026000805481526020019081526020016000206002019080519060200190620005c3929190620009ab565b506000805481526002602090815260409091208d51620005ec926003909201918f0190620009ab565b50600054600260008054815260200190815260200160002060040181905550806002600080548152602001908152602001600020600501819055508a600260008054815260200190815260200160002060060160006101000a815481600160a060020a030219169083600160a060020a03160217905550896002600080548152602001908152602001600020600701908051906020019062000690929190620009ab565b50506000549e9d5050505050505050505050505050565b60018054810190558151835185516040805191909201909201808352601f19601f8201168301602001909152600091869186918691606091908015620006f4576020820181803883390190505b509050806000805b8651811015620007945786818151811015156200071557fe5b9060200101517f010000000000000000000000000000000000000000000000000000000000000090047f01000000000000000000000000000000000000000000000000000000000000000283838151811015156200076f57fe5b906020010190600160f860020a031916908160001a90535060019182019101620006fc565b5060005b855181101562000830578581815181101515620007b157fe5b9060200101517f010000000000000000000000000000000000000000000000000000000000000090047f01000000000000000000000000000000000000000000000000000000000000000283838151811015156200080b57fe5b906020010190600160f860020a031916908160001a9053506001918201910162000798565b5060005b8451811015620008cc5784818151811015156200084d57fe5b9060200101517f010000000000000000000000000000000000000000000000000000000000000090047f0100000000000000000000000000000000000000000000000000000000000000028383815181101515620008a757fe5b906020010190600160f860020a031916908160001a9053506001918201910162000834565b508151602080840191909120600154600090815260038352604090208d519192620008fb92908f0190620009ab565b506001805460009081526003602090815260409091208d51620009269391909101918e0190620009ab565b5060015460009081526003602090815260409091208b5162000951926002909201918d0190620009ab565b506001805460008181526003602081905260408083209182019390935560040193909355815483529091206005018054600160a060020a038b16600160a060020a0319909116179055549650505050505050949350505050565b828054600181600116156101000203166002900490600052602060002090601f016020900481019282601f10620009ee57805160ff191683800117855562000a1e565b8280016001018555821562000a1e579182015b8281111562000a1e57825182559160200191906001019062000a01565b5062000a2c92915062000a30565b5090565b62000a4d91905b8082111562000a2c576000815560010162000a37565b90565b6115b38062000a606000396000f3fe6080604052600436106100825763ffffffff7c01000000000000000000000000000000000000000000000000000000006000350416636610f9cf811461008757806369e6601c146102e8578063acecc1491461047d578063c5c2d952146104a4578063e1af85a5146104e9578063f0111f26146106b5578063f3e2236f14610995575b600080fd5b34801561009357600080fd5b506100b1600480360360208110156100aa57600080fd5b50356109aa565b604051808060200180602001806020018060200189815260200188815260200187600160a060020a0316600160a060020a031681526020018060200186810386528e818151815260200191508051906020019080838360005b8381101561012257818101518382015260200161010a565b50505050905090810190601f16801561014f5780820380516001836020036101000a031916815260200191505b5086810385528d5181528d516020918201918f019080838360005b8381101561018257818101518382015260200161016a565b50505050905090810190601f1680156101af5780820380516001836020036101000a031916815260200191505b5086810384528c5181528c516020918201918e019080838360005b838110156101e25781810151838201526020016101ca565b50505050905090810190601f16801561020f5780820380516001836020036101000a031916815260200191505b5086810383528b5181528b516020918201918d019080838360005b8381101561024257818101518382015260200161022a565b50505050905090810190601f16801561026f5780820380516001836020036101000a031916815260200191505b50868103825287518152875160209182019189019080838360005b838110156102a257818101518382015260200161028a565b50505050905090810190601f1680156102cf5780820380516001836020036101000a031916815260200191505b509d505050505050505050505050505060405180910390f35b3480156102f457600080fd5b506103126004803603602081101561030b57600080fd5b5035610cb4565b6040518080602001806020018060200187815260200186815260200185600160a060020a0316600160a060020a0316815260200184810384528a818151815260200191508051906020019080838360005b8381101561037b578181015183820152602001610363565b50505050905090810190601f1680156103a85780820380516001836020036101000a031916815260200191505b5084810383528951815289516020918201918b019080838360005b838110156103db5781810151838201526020016103c3565b50505050905090810190601f1680156104085780820380516001836020036101000a031916815260200191505b5084810382528851815288516020918201918a019080838360005b8381101561043b578181015183820152602001610423565b50505050905090810190601f1680156104685780820380516001836020036101000a031916815260200191505b50995050505050505050505060405180910390f35b34801561048957600080fd5b50610492610ea2565b60408051918252519081900360200190f35b3480156104b057600080fd5b506104e7600480360360608110156104c757600080fd5b50600160a060020a03813581169160208101359091169060400135610ea8565b005b3480156104f557600080fd5b506104926004803603608081101561050c57600080fd5b81019060208101813564010000000081111561052757600080fd5b82018360208201111561053957600080fd5b8035906020019184600183028401116401000000008311171561055b57600080fd5b91908080601f01602080910402602001604051908101604052809392919081815260200183838082843760009201919091525092959493602081019350359150506401000000008111156105ae57600080fd5b8201836020820111156105c057600080fd5b803590602001918460018302840111640100000000831117156105e257600080fd5b91908080601f016020809104026020016040519081016040528093929190818152602001838380828437600092019190915250929594936020810193503591505064010000000081111561063557600080fd5b82018360208201111561064757600080fd5b8035906020019184600183028401116401000000008311171561066957600080fd5b91908080601f01602080910402602001604051908101604052809392919081815260200183838082843760009201919091525092955050509035600160a060020a03169150610f4c9050565b3480156106c157600080fd5b50610492600480360360c08110156106d857600080fd5b8101906020810181356401000000008111156106f357600080fd5b82018360208201111561070557600080fd5b8035906020019184600183028401116401000000008311171561072757600080fd5b91908080601f016020809104026020016040519081016040528093929190818152602001838380828437600092019190915250929594936020810193503591505064010000000081111561077a57600080fd5b82018360208201111561078c57600080fd5b803590602001918460018302840111640100000000831117156107ae57600080fd5b91908080601f016020809104026020016040519081016040528093929190818152602001838380828437600092019190915250929594936020810193503591505064010000000081111561080157600080fd5b82018360208201111561081357600080fd5b8035906020019184600183028401116401000000008311171561083557600080fd5b91908080601f016020809104026020016040519081016040528093929190818152602001838380828437600092019190915250929594936020810193503591505064010000000081111561088857600080fd5b82018360208201111561089a57600080fd5b803590602001918460018302840111640100000000831117156108bc57600080fd5b91908080601f0160208091040260200160405190810160405280939291908181526020018383808284376000920191909152509295600160a060020a0385351695909490935060408101925060200135905064010000000081111561092057600080fd5b82018360208201111561093257600080fd5b8035906020019184600183028401116401000000008311171561095457600080fd5b91908080601f0160208091040260200160405190810160405280939291908181526020018383808284376000920191909152509295506111a2945050505050565b3480156109a157600080fd5b506104926114e6565b600260208181526000928352604092839020805484516001821615610100026000190190911693909304601f8101839004830284018301909452838352928391830182828015610a3b5780601f10610a1057610100808354040283529160200191610a3b565b820191906000526020600020905b815481529060010190602001808311610a1e57829003601f168201915b505050505090806001018054600181600116156101000203166002900480601f016020809104026020016040519081016040528092919081815260200182805460018160011615610100020316600290048015610ad95780601f10610aae57610100808354040283529160200191610ad9565b820191906000526020600020905b815481529060010190602001808311610abc57829003601f168201915b50505060028085018054604080516020601f6000196101006001871615020190941695909504928301859004850281018501909152818152959695945090925090830182828015610b6b5780601f10610b4057610100808354040283529160200191610b6b565b820191906000526020600020905b815481529060010190602001808311610b4e57829003601f168201915b5050505060038301805460408051602060026001851615610100026000190190941693909304601f8101849004840282018401909252818152949594935090830182828015610bfb5780601f10610bd057610100808354040283529160200191610bfb565b820191906000526020600020905b815481529060010190602001808311610bde57829003601f168201915b505050600484015460058501546006860154600787018054604080516020601f6002600019600187161561010002019095169490940493840181900481028201810190925282815298999598949750600160a060020a0390931695509091830182828015610caa5780601f10610c7f57610100808354040283529160200191610caa565b820191906000526020600020905b815481529060010190602001808311610c8d57829003601f168201915b5050505050905088565b60036020908152600091825260409182902080548351601f60026000196101006001861615020190931692909204918201849004840281018401909452808452909291839190830182828015610d4b5780601f10610d2057610100808354040283529160200191610d4b565b820191906000526020600020905b815481529060010190602001808311610d2e57829003601f168201915b505050505090806001018054600181600116156101000203166002900480601f016020809104026020016040519081016040528092919081815260200182805460018160011615610100020316600290048015610de95780601f10610dbe57610100808354040283529160200191610de9565b820191906000526020600020905b815481529060010190602001808311610dcc57829003601f168201915b50505060028085018054604080516020601f6000196101006001871615020190941695909504928301859004850281018501909152818152959695945090925090830182828015610e7b5780601f10610e5057610100808354040283529160200191610e7b565b820191906000526020600020905b815481529060010190602001808311610e5e57829003601f168201915b505050506003830154600484015460059094015492939092909150600160a060020a031686565b60005481565b6000808080805b600054811015610eee57600081815260026020526040902060060154600160a060020a0389811691161415610ee657600192508094505b600101610eaf565b5060005b600154811015610f3157600081815260036020526040902060050154600160a060020a0388811691161415610f2957600191508093505b600101610ef2565b50816001148015610f425750806001145b5050505050505050565b60018054810190558151835185516040805191909201909201808352601f19601f8201168301602001909152600091869186918691606091908015610f98576020820181803883390190505b509050806000805b8651811015610ffc578681815181101515610fb757fe5b90602001015160f860020a900460f860020a028383815181101515610fd857fe5b906020010190600160f860020a031916908160001a90535060019182019101610fa0565b5060005b855181101561105c57858181518110151561101757fe5b90602001015160f860020a900460f860020a02838381518110151561103857fe5b906020010190600160f860020a031916908160001a90535060019182019101611000565b5060005b84518110156110bc57848181518110151561107757fe5b90602001015160f860020a900460f860020a02838381518110151561109857fe5b906020010190600160f860020a031916908160001a90535060019182019101611060565b508151602080840191909120600154600090815260038352604090208d5191926110e992908f01906114ec565b506001805460009081526003602090815260409091208d516111129391909101918e01906114ec565b5060015460009081526003602090815260409091208b5161113b926002909201918d01906114ec565b506001805460008181526003602081905260408083209182019390935560040193909355815483529091206005018054600160a060020a038b1673ffffffffffffffffffffffffffffffffffffffff19909116179055549650505050505050949350505050565b60008054600101815583518551875189516040805191909201909201909201808252601f19601f8201168201602001909252889188918891889160609180156111f2576020820181803883390190505b509050806000805b875181101561125657878181518110151561121157fe5b90602001015160f860020a900460f860020a02838381518110151561123257fe5b906020010190600160f860020a031916908160001a905350600191820191016111fa565b5060005b86518110156112b657868181518110151561127157fe5b90602001015160f860020a900460f860020a02838381518110151561129257fe5b906020010190600160f860020a031916908160001a9053506001918201910161125a565b5060005b85518110156113165785818151811015156112d157fe5b90602001015160f860020a900460f860020a0283838151811015156112f257fe5b906020010190600160f860020a031916908160001a905350600191820191016112ba565b5060005b845181101561137657848181518110151561133157fe5b90602001015160f860020a900460f860020a02838381518110151561135257fe5b906020010190600160f860020a031916908160001a9053506001918201910161131a565b506000828051906020012090508e600260008054815260200190815260200160002060000190805190602001906113ae9291906114ec565b508d600260008054815260200190815260200160002060010190805190602001906113da9291906114ec565b508c600260008054815260200190815260200160002060020190805190602001906114069291906114ec565b506000805481526002602090815260409091208d5161142d926003909201918f01906114ec565b50600054600260008054815260200190815260200160002060040181905550806002600080548152602001908152602001600020600501819055508a600260008054815260200190815260200160002060060160006101000a815481600160a060020a030219169083600160a060020a0316021790555089600260008054815260200190815260200160002060070190805190602001906114cf9291906114ec565b50506000549e9d5050505050505050505050505050565b60015481565b828054600181600116156101000203166002900490600052602060002090601f016020900481019282601f1061152d57805160ff191683800117855561155a565b8280016001018555821561155a579182015b8281111561155a57825182559160200191906001019061153f565b5061156692915061156a565b5090565b61158491905b808211156115665760008155600101611570565b9056fea165627a7a72305820294bf8a8eca431d2a50766ed3b01a89ec128a3feb6ebf6bfede5ad2afebd14330029",
  "source": "pragma solidity ^ 0.5.0;\r\ncontract charity {\r\n\r\n  uint public charity_count = 0;\r\n\r\n\r\n  uint public org_count = 0;\r\n\r\n  struct charity_structre {\r\n    string name;\r\n    string description;\r\n    string bankAccount;\r\n    string bankName;\r\n    uint id;\r\n    bytes32 hash;\r\n    address address_of_charity;\r\n    string  ether_coins;\r\n\r\n\r\n  }\r\n\r\n  struct personOrOrganisation_structure {\r\n\r\n    string name;\r\n    string bankAccount;\r\n    string bankName;\r\n    uint id;\r\n    bytes32 hash;\r\n    address address_of_organisation;\r\n\r\n\r\n\r\n  }\r\n\r\n  constructor() public {\r\n\r\n      createCharity(\"anand_charity\", \"welcome to anand's charity, this is a default charity as I created this web page\",\"bankacc\",\"bankname\",0xCA35b7d915458EF540aDe6068dFe2F44E8fa733c,\"0\");\r\n\r\n      createOrganisation(\"anand_organisation\",\"bank account\",\"bank name\",0xCA35b7d915458EF540aDe6068dFe2F44E8fa733c);\r\n  }\r\n\r\n  mapping(uint => charity_structre) public charitys;\r\n\r\n\r\n  mapping(uint => personOrOrganisation_structure) public org;\r\n\r\n  event charityCreated(\r\n\r\n    string name,\r\n    string description,\r\n    string bankacc,\r\n    string bankname,\r\n    uint id,\r\n    bytes32 hash,\r\n    address address_of_charity\r\n\r\n  );\r\n\r\n\r\n  event organisationCreated(\r\n\r\n\r\n    string name,\r\n    string bankacc,\r\n    string bankname,\r\n    uint id,\r\n    bytes32 hash,\r\n    address address_of_organisation\r\n  );\r\n\r\n\r\n  function createCharity(string memory _name, string memory _description, string memory _bankacc, string memory _bankname, address _address, string memory _ether_coins) public returns(uint){\r\n\r\n      charity_count++;\r\n      bytes memory name_byte = bytes(_name);\r\n      bytes memory description_byte = bytes(_description);\r\n      bytes memory bankacc_byte = bytes(_bankacc);\r\n      bytes memory bankname_byte = bytes(_bankname);\r\n      //string memory newStr = string(_address);\r\n      //bytes memory address_byte = bytes(_address);\r\n      string memory lengthabc = new string(name_byte.length + description_byte.length + bankacc_byte.length + bankname_byte.length );\r\n      bytes memory hash = bytes(lengthabc);\r\n      uint k = 0;\r\n      for(uint i =0;i < name_byte.length; i++){\r\n          hash[k] = name_byte[i];\r\n          k++;\r\n      }\r\n      for(uint i = 0;i < description_byte.length;i++){\r\n          hash[k] = description_byte[i];\r\n          k++;\r\n      }\r\n      for(uint i = 0;i < bankacc_byte.length;i++){\r\n          hash[k] = bankacc_byte[i];\r\n          k++;\r\n      }\r\n      for(uint i = 0;i < bankname_byte.length;i++){\r\n          hash[k] = bankname_byte[i];\r\n          k++;\r\n      }\r\n      /*\r\n      for(uint i = 0;i < address_byte.length; i++ ){\r\n\r\n          hash[k] = address_byte[i];\r\n          k++;\r\n      }\r\n      */\r\n\r\n      bytes32 hash_address = keccak256(hash);\r\n      //charitys[charity_count] = charity_structre(_name,_description,_bankacc,_bankname,charity_count,hash_address,_address);\r\n\r\n      charitys[charity_count].name = _name;\r\n      charitys[charity_count].description = _description;\r\n      charitys[charity_count].bankAccount = _bankacc;\r\n      charitys[charity_count].bankName = _bankname;\r\n      charitys[charity_count].id = charity_count;\r\n      charitys[charity_count].hash = hash_address;\r\n      charitys[charity_count].address_of_charity = _address;\r\n      charitys[charity_count].ether_coins = _ether_coins;\r\n      //emit charityCreated(_name,_description,_bankacc,_bankname,charity_count,hash_address,_address);\r\n\r\n      return(charity_count);\r\n\r\n\r\n  }\r\n\r\n\r\n  function createOrganisation(string memory _name, string memory _bankacc, string memory _bankname, address _address) public returns(uint){\r\n\r\n    org_count ++;\r\n\r\n    bytes memory name_byte = bytes(_name);\r\n    bytes memory acc_byte = bytes(_bankacc);\r\n    bytes memory bankname_byte = bytes(_bankname);\r\n    //bytes memory address_byte = bytes(_address);\r\n    string memory lengthabc = new string(name_byte.length + acc_byte.length + bankname_byte.length );\r\n    bytes memory hash = bytes(lengthabc);\r\n\r\n    uint k = 0;\r\n\r\n    for(uint i = 0; i < name_byte.length;i++) {\r\n\r\n      hash[k] = name_byte[i];\r\n      k++;\r\n    }\r\n\r\n    for(uint i = 0; i < acc_byte.length; i++){\r\n\r\n      hash[k] = acc_byte[i];\r\n      k++;\r\n\r\n    }\r\n\r\n\r\n    for(uint i = 0; i < bankname_byte.length; i++) {\r\n\r\n      hash[k] = bankname_byte[i];\r\n      k++;\r\n    }\r\n\r\n    /*\r\n    for(uint i = 0;i < address_byte.length; i++) {\r\n\r\n      hash[k] = address_byte[i];\r\n      k++;\r\n\r\n    }\r\n    */\r\n\r\n\r\n    bytes32 hash_address = keccak256(hash);\r\n\r\n    //org[org_count] = personOrOrganisation_structure(_name,_bankacc,_bankname,org_count,hash_address,_address);\r\n\r\n\r\n    org[org_count].name = _name;\r\n    org[org_count].bankAccount = _bankacc;\r\n    org[org_count].bankName = _bankname;\r\n    org[org_count].id = org_count;\r\n    org[org_count].hash = hash_address;\r\n    org[org_count].address_of_organisation = _address;\r\n\r\n\r\n    //emit organisationCreated(_name,_bankacc,_bankname,org_count,hash_address,_address);\r\n\r\n    return org_count;\r\n\r\n\r\n  }\r\n\r\n\r\n/*\r\n  function parseAddr(string memory _a) public returns (address _parsedAddress) {\r\n    bytes memory tmp = bytes(_a);\r\n    uint160 iaddr = 0;\r\n    uint160 b1;\r\n    uint160 b2;\r\n    for (uint i = 2; i < 2 + 2 * 20; i += 2) {\r\n        iaddr *= 256;\r\n        b1 = uint160(uint8(tmp[i]));\r\n        b2 = uint160(uint8(tmp[i + 1]));\r\n        if ((b1 >= 97) && (b1 <= 102)) {\r\n            b1 -= 87;\r\n        } else if ((b1 >= 65) && (b1 <= 70)) {\r\n            b1 -= 55;\r\n        } else if ((b1 >= 48) && (b1 <= 57)) {\r\n            b1 -= 48;\r\n        }\r\n        if ((b2 >= 97) && (b2 <= 102)) {\r\n            b2 -= 87;\r\n        } else if ((b2 >= 65) && (b2 <= 70)) {\r\n            b2 -= 55;\r\n        } else if ((b2 >= 48) && (b2 <= 57)) {\r\n            b2 -= 48;\r\n        }\r\n        iaddr += (b1 * 16 + b2);\r\n    }\r\n    return address(iaddr);\r\n}\r\n*/\r\n\r\n\r\nfunction transaction_org_to_charity(address add_of_charity,address add_of_org,uint amount) public {\r\n\r\n\r\n  uint index_charity = 0;\r\n  uint index_org = 0;\r\n  uint flag1=0;\r\n  uint flag2=0;\r\n\r\n  for(uint i =0;i<charity_count;i++) {\r\n\r\n    if(charitys[i].address_of_charity == add_of_charity){\r\n\r\n        flag1 = 1;\r\n        index_charity = i;\r\n\r\n    }\r\n  }\r\n\r\n  for(uint i = 0;i<org_count;i++) {\r\n\r\n      if(org[i].address_of_organisation == add_of_org) {\r\n          flag2 = 1;\r\n          index_org = i;\r\n      }\r\n\r\n  }\r\n\r\n  if(flag1 == 1 && flag2 ==1){\r\n\r\n\r\n\r\n  }\r\n\r\n\r\n\r\n\r\n\r\n}\r\n\r\n\r\n}\r\n",
  "sourcePath": "D:/blockchain_final/contracts/charity.sol",
  "compiler": {
    "name": "solc",
    "version": "0.5.0+commit.1d4f565a.Emscripten.clang"
  },
  "schemaVersion": "3.0.2",
  "updatedAt": "2020-07-09T15:44:10.758Z",
  "devdoc": {
    "methods": {}
  },
  "userdoc": {
    "methods": {}
  }
}