{
  "contractName": "charity",
  "abi": [
    {
      "constant": true,
      "inputs": [],
      "name": "blockchain_count",
      "outputs": [
        {
          "name": "",
          "type": "uint256"
        }
      ],
      "payable": false,
      "stateMutability": "view",
      "type": "function",
      "signature": "0x0ae9d38e"
    },
    {
      "constant": true,
      "inputs": [
        {
          "name": "",
          "type": "uint256"
        }
      ],
      "name": "charitys",
      "outputs": [
        {
          "name": "name",
          "type": "string"
        },
        {
          "name": "description",
          "type": "string"
        },
        {
          "name": "bankAccount",
          "type": "string"
        },
        {
          "name": "bankName",
          "type": "string"
        },
        {
          "name": "id",
          "type": "uint256"
        },
        {
          "name": "hash",
          "type": "bytes32"
        },
        {
          "name": "address_of_charity",
          "type": "string"
        },
        {
          "name": "ether_coins",
          "type": "string"
        }
      ],
      "payable": false,
      "stateMutability": "view",
      "type": "function",
      "signature": "0x6610f9cf"
    },
    {
      "constant": true,
      "inputs": [
        {
          "name": "",
          "type": "uint256"
        }
      ],
      "name": "org",
      "outputs": [
        {
          "name": "name",
          "type": "string"
        },
        {
          "name": "bankAccount",
          "type": "string"
        },
        {
          "name": "bankName",
          "type": "string"
        },
        {
          "name": "id",
          "type": "uint256"
        },
        {
          "name": "hash",
          "type": "bytes32"
        },
        {
          "name": "address_of_organisation",
          "type": "string"
        },
        {
          "name": "ether_coins",
          "type": "string"
        }
      ],
      "payable": false,
      "stateMutability": "view",
      "type": "function",
      "signature": "0x69e6601c"
    },
    {
      "constant": true,
      "inputs": [
        {
          "name": "",
          "type": "uint256"
        }
      ],
      "name": "Blockchain",
      "outputs": [
        {
          "name": "nonce",
          "type": "uint256"
        },
        {
          "name": "data",
          "type": "bytes"
        },
        {
          "name": "transaction_hash_add",
          "type": "bytes32"
        },
        {
          "name": "blockNumber",
          "type": "uint256"
        },
        {
          "name": "hash",
          "type": "bytes32"
        },
        {
          "name": "previous_hash",
          "type": "bytes32"
        }
      ],
      "payable": false,
      "stateMutability": "view",
      "type": "function",
      "signature": "0x6f05bbf4"
    },
    {
      "constant": true,
      "inputs": [],
      "name": "charity_count",
      "outputs": [
        {
          "name": "",
          "type": "uint256"
        }
      ],
      "payable": false,
      "stateMutability": "view",
      "type": "function",
      "signature": "0xacecc149"
    },
    {
      "constant": true,
      "inputs": [
        {
          "name": "",
          "type": "uint256"
        }
      ],
      "name": "transaction_dict",
      "outputs": [
        {
          "name": "address_of_charity",
          "type": "string"
        },
        {
          "name": "address_of_organisation",
          "type": "string"
        },
        {
          "name": "amount_sent",
          "type": "string"
        },
        {
          "name": "id",
          "type": "uint256"
        },
        {
          "name": "transaction_hash",
          "type": "bytes32"
        }
      ],
      "payable": false,
      "stateMutability": "view",
      "type": "function",
      "signature": "0xd5e2c5e4"
    },
    {
      "constant": true,
      "inputs": [],
      "name": "org_count",
      "outputs": [
        {
          "name": "",
          "type": "uint256"
        }
      ],
      "payable": false,
      "stateMutability": "view",
      "type": "function",
      "signature": "0xf3e2236f"
    },
    {
      "constant": true,
      "inputs": [],
      "name": "transaction_count",
      "outputs": [
        {
          "name": "",
          "type": "uint256"
        }
      ],
      "payable": false,
      "stateMutability": "view",
      "type": "function",
      "signature": "0xf7ff50e2"
    },
    {
      "inputs": [],
      "payable": false,
      "stateMutability": "nonpayable",
      "type": "constructor",
      "signature": "constructor"
    },
    {
      "constant": false,
      "inputs": [
        {
          "name": "_name",
          "type": "string"
        },
        {
          "name": "_description",
          "type": "string"
        },
        {
          "name": "_bankacc",
          "type": "string"
        },
        {
          "name": "_bankname",
          "type": "string"
        },
        {
          "name": "_address",
          "type": "string"
        },
        {
          "name": "_ether_coins",
          "type": "string"
        }
      ],
      "name": "createCharity",
      "outputs": [
        {
          "name": "",
          "type": "uint256"
        }
      ],
      "payable": false,
      "stateMutability": "nonpayable",
      "type": "function",
      "signature": "0xb7483a1b"
    },
    {
      "constant": false,
      "inputs": [
        {
          "name": "_name",
          "type": "string"
        },
        {
          "name": "_bankacc",
          "type": "string"
        },
        {
          "name": "_bankname",
          "type": "string"
        },
        {
          "name": "_address",
          "type": "string"
        },
        {
          "name": "_ether_coins",
          "type": "string"
        }
      ],
      "name": "createOrganisation",
      "outputs": [
        {
          "name": "",
          "type": "uint256"
        }
      ],
      "payable": false,
      "stateMutability": "nonpayable",
      "type": "function",
      "signature": "0xcc11e169"
    },
    {
      "constant": false,
      "inputs": [
        {
          "name": "add_of_charity",
          "type": "string"
        },
        {
          "name": "add_of_org",
          "type": "string"
        },
        {
          "name": "amount",
          "type": "string"
        }
      ],
      "name": "createTransaction",
      "outputs": [],
      "payable": false,
      "stateMutability": "nonpayable",
      "type": "function",
      "signature": "0x17db127a"
    },
    {
      "constant": false,
      "inputs": [],
      "name": "blockchain_function",
      "outputs": [],
      "payable": false,
      "stateMutability": "nonpayable",
      "type": "function",
      "signature": "0x1c74915a"
    }
  ],
  "bytecode": "0x6080604052600080556000600155600060045560006006553480156200002457600080fd5b50620001e56040805190810160405280600d81526020017f616e616e645f6368617269747900000000000000000000000000000000000000815250608060405190810160405280605081526020017f77656c636f6d6520746f20616e616e64277320636861726974792c207468697381526020017f20697320612064656661756c742063686172697479206173204920637265617481526020017f65642074686973207765622070616765000000000000000000000000000000008152506040805190810160405280600781526020017f62616e6b616363000000000000000000000000000000000000000000000000008152506040805190810160405280600881526020017f62616e6b6e616d65000000000000000000000000000000000000000000000000815250606060405190810160405280602a81526020016000805160206200647583398151915281526020017f34344538666137333363000000000000000000000000000000000000000000008152506040805190810160405280600481526020017f303030300000000000000000000000000000000000000000000000000000000081525062000420640100000000026401000000009004565b50604080518082018252601281527f616e616e645f6f7267616e69736174696f6e000000000000000000000000000060208083019190915282518084018452600c81527f62616e6b206163636f756e7400000000000000000000000000000000000000008183015283518085018552600981527f62616e6b206e616d650000000000000000000000000000000000000000000000818401528451606081018652602a815260008051602062006475833981519152818501527f3434453866613733336300000000000000000000000000000000000000000000818701528551808701909652600486527f3030303000000000000000000000000000000000000000000000000000000000938601939093526200030e9491929091640100000000620008cd810204565b506040805160608181018352602a8083527f30783945344665373762624133336239613835393765363546383841433430446020808501919091527f383562343544324435450000000000000000000000000000000000000000000084860152845192830185529082527f3078303836336234366535316239353845396546663336364363446331453866828201527f3165353039313563383500000000000000000000000000000000000000000000828501528351808501909452600184527f310000000000000000000000000000000000000000000000000000000000000090840152620004079264010000000062000cab810204565b6200041a64010000000062000f80810204565b62002aac565b60008054600101815582518451865188518a516040805191909201909201909201909201808352601f19601f820116830160200190915288918891889188918891606091801562000478576020820181803883390190505b509050806000805b8851811015620005185788818151811015156200049957fe5b9060200101517f010000000000000000000000000000000000000000000000000000000000000090047f0100000000000000000000000000000000000000000000000000000000000000028383815181101515620004f357fe5b906020010190600160f860020a031916908160001a9053506001918201910162000480565b5060005b8751811015620005b45787818151811015156200053557fe5b9060200101517f010000000000000000000000000000000000000000000000000000000000000090047f01000000000000000000000000000000000000000000000000000000000000000283838151811015156200058f57fe5b906020010190600160f860020a031916908160001a905350600191820191016200051c565b5060005b865181101562000650578681815181101515620005d157fe5b9060200101517f010000000000000000000000000000000000000000000000000000000000000090047f01000000000000000000000000000000000000000000000000000000000000000283838151811015156200062b57fe5b906020010190600160f860020a031916908160001a90535060019182019101620005b8565b5060005b8551811015620006ec5785818151811015156200066d57fe5b9060200101517f010000000000000000000000000000000000000000000000000000000000000090047f0100000000000000000000000000000000000000000000000000000000000000028383815181101515620006c757fe5b906020010190600160f860020a031916908160001a9053506001918201910162000654565b5060005b8451811015620007885784818151811015156200070957fe5b9060200101517f010000000000000000000000000000000000000000000000000000000000000090047f01000000000000000000000000000000000000000000000000000000000000000283838151811015156200076357fe5b906020010190600160f860020a031916908160001a90535060019182019101620006f0565b506000828051906020012090508f60026000805481526020019081526020016000206000019080519060200190620007c292919062002a07565b508e60026000805481526020019081526020016000206001019080519060200190620007f092919062002a07565b508d600260008054815260200190815260200160002060020190805190602001906200081e92919062002a07565b508c600260008054815260200190815260200160002060030190805190602001906200084c92919062002a07565b5060008054808252600260209081526040808420600481019390935560059092018490558254835291208d516200088c926006909201918f019062002a07565b506000805481526002602090815260409091208c51620008b5926007909201918e019062002a07565b50506000549f9e505050505050505050505050505050565b600180548101905581518351855187516040805191909201909201909201808252601f19601f8201168201602001909252600091879187918791879160609190801562000921576020820181803883390190505b509050806000805b8751811015620009c15787818151811015156200094257fe5b9060200101517f010000000000000000000000000000000000000000000000000000000000000090047f01000000000000000000000000000000000000000000000000000000000000000283838151811015156200099c57fe5b906020010190600160f860020a031916908160001a9053506001918201910162000929565b5060005b865181101562000a5d578681815181101515620009de57fe5b9060200101517f010000000000000000000000000000000000000000000000000000000000000090047f010000000000000000000000000000000000000000000000000000000000000002838381518110151562000a3857fe5b906020010190600160f860020a031916908160001a90535060019182019101620009c5565b5060005b855181101562000af957858181518110151562000a7a57fe5b9060200101517f010000000000000000000000000000000000000000000000000000000000000090047f010000000000000000000000000000000000000000000000000000000000000002838381518110151562000ad457fe5b906020010190600160f860020a031916908160001a9053506001918201910162000a61565b5060005b845181101562000b9557848181518110151562000b1657fe5b9060200101517f010000000000000000000000000000000000000000000000000000000000000090047f010000000000000000000000000000000000000000000000000000000000000002838381518110151562000b7057fe5b906020010190600160f860020a031916908160001a9053506001918201910162000afd565b506000828051906020012090508d600360006001548152602001908152602001600020600001908051906020019062000bd092919062002a07565b508c600360006001548152602001908152602001600020600101908051906020019062000bff92919062002a07565b5060015460009081526003602090815260409091208d5162000c2a926002909201918f019062002a07565b5060018054600081815260036020818152604080842092830194909455600490910185905592548152208c5162000c6a926005909201918e019062002a07565b5060015460009081526003602090815260409091208b5162000c95926006909201918d019062002a07565b50506001549d9c50505050505050505050505050565b6004805460010190558051825184516040805191909201909201808352601f19601f8201168301602001909152849184918491606091801562000cf5576020820181803883390190505b509050806000805b865181101562000d9757868181518110151562000d1657fe5b9060200101517f010000000000000000000000000000000000000000000000000000000000000090047f010000000000000000000000000000000000000000000000000000000000000002838380600101945081518110151562000d7657fe5b906020010190600160f860020a031916908160001a90535060010162000cfd565b5060005b855181101562000e3557858181518110151562000db457fe5b9060200101517f010000000000000000000000000000000000000000000000000000000000000090047f010000000000000000000000000000000000000000000000000000000000000002838380600101945081518110151562000e1457fe5b906020010190600160f860020a031916908160001a90535060010162000d9b565b5060005b845181101562000ed357848181518110151562000e5257fe5b9060200101517f010000000000000000000000000000000000000000000000000000000000000090047f010000000000000000000000000000000000000000000000000000000000000002838380600101945081518110151562000eb257fe5b906020010190600160f860020a031916908160001a90535060010162000e39565b508151602080840191909120600454600090815260058352604090208b51919262000f0292908d019062002a07565b5060045460009081526005602090815260409091208a5162000f2d926001909201918c019062002a07565b506004546000908152600560209081526040909120895162000f58926002909201918b019062002a07565b5060048054600081815260056020526040902060038101919091550155505050505050505050565b6006805460019081019091556000905b6000548111620013a757600081815260026020818152604092839020805484516001821615610100026000190190911693909304601f81018390048302840183019094528383526060939091830182828015620010315780601f10620010055761010080835404028352916020019162001031565b820191906000526020600020905b8154815290600101906020018083116200101357829003601f168201915b505050505090506060600260008481526020019081526020016000206001018054600181600116156101000203166002900480601f016020809104026020016040519081016040528092919081815260200182805460018160011615610100020316600290048015620010e85780601f10620010bc57610100808354040283529160200191620010e8565b820191906000526020600020905b815481529060010190602001808311620010ca57829003601f168201915b5050506000868152600260208181526040928390208201805484516001821615610100026000190190911693909304601f81018390048302840183019094528383529596506060959194509092508301828280156200118b5780601f106200115f576101008083540402835291602001916200118b565b820191906000526020600020905b8154815290600101906020018083116200116d57829003601f168201915b505050600087815260026020818152604092839020600301805484516001821615610100026000190190911693909304601f81018390048302840183019094528383529596506060959194509092508301828280156200122f5780601f1062001203576101008083540402835291602001916200122f565b820191906000526020600020905b8154815290600101906020018083116200121157829003601f168201915b505050600088815260026020818152604092839020600601805484516001821615610100026000190190911693909304601f8101839004830284018301909452838352959650606095919450909250830182828015620012d35780601f10620012a757610100808354040283529160200191620012d3565b820191906000526020600020905b815481529060010190602001808311620012b557829003601f168201915b505050600089815260026020818152604092839020600701805484516001821615610100026000190190911693909304601f8101839004830284018301909452838352959650606095919450909250830182828015620013775780601f106200134b5761010080835404028352916020019162001377565b820191906000526020600020905b8154815290600101906020018083116200135957829003601f168201915b50505050509050805182518451865188518a51010101010188019750505050505050808060010191505062000f90565b5060015b60015481116200171e5760008181526003602090815260409182902080548351601f60026000196101006001861615020190931692909204918201849004840281018401909452808452606093928301828280156200144e5780601f1062001422576101008083540402835291602001916200144e565b820191906000526020600020905b8154815290600101906020018083116200143057829003601f168201915b505050505090506060600360008481526020019081526020016000206001018054600181600116156101000203166002900480601f016020809104026020016040519081016040528092919081815260200182805460018160011615610100020316600290048015620015055780601f10620014d95761010080835404028352916020019162001505565b820191906000526020600020905b815481529060010190602001808311620014e757829003601f168201915b5050506000868152600360209081526040918290206002908101805484516001821615610100026000190190911692909204601f81018490048402830184019094528382529596506060959094509250830182828015620015aa5780601f106200157e57610100808354040283529160200191620015aa565b820191906000526020600020905b8154815290600101906020018083116200158c57829003601f168201915b5050506000878152600360209081526040918290206005018054835160026001831615610100026000190190921691909104601f8101849004840282018401909452838152959650606095945092508301828280156200164e5780601f1062001622576101008083540402835291602001916200164e565b820191906000526020600020905b8154815290600101906020018083116200163057829003601f168201915b5050506000888152600360209081526040918290206006018054835160026001831615610100026000190190921691909104601f810184900484028201840190945283815295965060609594509250830182828015620016f25780601f10620016c657610100808354040283529160200191620016f2565b820191906000526020600020905b815481529060010190602001808311620016d457829003601f168201915b5050505050905080518251845186518851010101018701965050505050508080600101915050620013ab565b506060816040519080825280601f01601f1916602001820160405280156200174d576020820181803883390190505b509050600081818060015b600054811162001ef757600081815260026020818152604092839020805484516001821615610100026000190190911693909304601f81018390048302840183019094528383526060939091830182828015620017f95780601f10620017cd57610100808354040283529160200191620017f9565b820191906000526020600020905b815481529060010190602001808311620017db57829003601f168201915b50939450600093505050505b81518110156200189f5781818151811015156200181e57fe5b9060200101517f010000000000000000000000000000000000000000000000000000000000000090047f01000000000000000000000000000000000000000000000000000000000000000286858060010196508151811015156200187e57fe5b906020010190600160f860020a031916908160001a90535060010162001805565b506000828152600260208181526040928390206001908101805485519281161561010002600019011693909304601f81018390048302820183019094528381526060939092918301828280156200193a5780601f106200190e576101008083540402835291602001916200193a565b820191906000526020600020905b8154815290600101906020018083116200191c57829003601f168201915b50939450600093505050505b8151811015620019e05781818151811015156200195f57fe5b9060200101517f010000000000000000000000000000000000000000000000000000000000000090047f0100000000000000000000000000000000000000000000000000000000000000028786806001019750815181101515620019bf57fe5b906020010190600160f860020a031916908160001a90535060010162001946565b506000838152600260208181526040928390208201805484516001821615610100026000190190911693909304601f8101839004830284018301909452838352606093909183018282801562001a7a5780601f1062001a4e5761010080835404028352916020019162001a7a565b820191906000526020600020905b81548152906001019060200180831162001a5c57829003601f168201915b50939450600093505050505b815181101562001b2057818181518110151562001a9f57fe5b9060200101517f010000000000000000000000000000000000000000000000000000000000000090047f010000000000000000000000000000000000000000000000000000000000000002888780600101985081518110151562001aff57fe5b906020010190600160f860020a031916908160001a90535060010162001a86565b50600084815260026020818152604092839020600301805484516001821615610100026000190190911693909304601f8101839004830284018301909452838352606093909183018282801562001bbb5780601f1062001b8f5761010080835404028352916020019162001bbb565b820191906000526020600020905b81548152906001019060200180831162001b9d57829003601f168201915b50939450600093505050505b815181101562001c6157818181518110151562001be057fe5b9060200101517f010000000000000000000000000000000000000000000000000000000000000090047f010000000000000000000000000000000000000000000000000000000000000002898880600101995081518110151562001c4057fe5b906020010190600160f860020a031916908160001a90535060010162001bc7565b50600085815260026020818152604092839020600601805484516001821615610100026000190190911693909304601f8101839004830284018301909452838352606093909183018282801562001cfc5780601f1062001cd05761010080835404028352916020019162001cfc565b820191906000526020600020905b81548152906001019060200180831162001cde57829003601f168201915b50939450600093505050505b815181101562001da257818181518110151562001d2157fe5b9060200101517f010000000000000000000000000000000000000000000000000000000000000090047f0100000000000000000000000000000000000000000000000000000000000000028a89806001019a5081518110151562001d8157fe5b906020010190600160f860020a031916908160001a90535060010162001d08565b50600086815260026020818152604092839020600701805484516001821615610100026000190190911693909304601f8101839004830284018301909452838352606093909183018282801562001e3d5780601f1062001e115761010080835404028352916020019162001e3d565b820191906000526020600020905b81548152906001019060200180831162001e1f57829003601f168201915b50939450600093505050505b815181101562001ee357818181518110151562001e6257fe5b9060200101517f010000000000000000000000000000000000000000000000000000000000000090047f0100000000000000000000000000000000000000000000000000000000000000028b8a806001019b5081518110151562001ec257fe5b906020010190600160f860020a031916908160001a90535060010162001e49565b505060019095019450620017589350505050565b5060015b60015481116200257a5760008181526003602090815260409182902080548351601f600260001961010060018616150201909316929092049182018490048402810184019094528084526060939283018282801562001f9e5780601f1062001f725761010080835404028352916020019162001f9e565b820191906000526020600020905b81548152906001019060200180831162001f8057829003601f168201915b50939450600093505050505b81518110156200204457818181518110151562001fc357fe5b9060200101517f010000000000000000000000000000000000000000000000000000000000000090047f01000000000000000000000000000000000000000000000000000000000000000286858060010196508151811015156200202357fe5b906020010190600160f860020a031916908160001a90535060010162001faa565b506060600360008481526020019081526020016000206001018054600181600116156101000203166002900480601f016020809104026020016040519081016040528092919081815260200182805460018160011615610100020316600290048015620020f55780601f10620020c957610100808354040283529160200191620020f5565b820191906000526020600020905b815481529060010190602001808311620020d757829003601f168201915b50939450600093505050505b81518110156200219b5781818151811015156200211a57fe5b9060200101517f010000000000000000000000000000000000000000000000000000000000000090047f01000000000000000000000000000000000000000000000000000000000000000287868060010197508151811015156200217a57fe5b906020010190600160f860020a031916908160001a90535060010162002101565b506000838152600360209081526040918290206002908101805484516001821615610100026000190190911692909204601f810184900484028301840190945283825260609391929091908301828280156200223b5780601f106200220f576101008083540402835291602001916200223b565b820191906000526020600020905b8154815290600101906020018083116200221d57829003601f168201915b50939450600093505050505b8151811015620022e15781818151811015156200226057fe5b9060200101517f010000000000000000000000000000000000000000000000000000000000000090047f0100000000000000000000000000000000000000000000000000000000000000028887806001019850815181101515620022c057fe5b906020010190600160f860020a031916908160001a90535060010162002247565b5060008481526003602090815260409182902060050180548351601f60026000196101006001861615020190931692909204918201849004840281018401909452808452606093928301828280156200237e5780601f1062002352576101008083540402835291602001916200237e565b820191906000526020600020905b8154815290600101906020018083116200236057829003601f168201915b50939450600093505050505b815181101562002424578181815181101515620023a357fe5b9060200101517f010000000000000000000000000000000000000000000000000000000000000090047f01000000000000000000000000000000000000000000000000000000000000000289888060010199508151811015156200240357fe5b906020010190600160f860020a031916908160001a9053506001016200238a565b5060008581526003602090815260409182902060060180548351601f6002600019610100600186161502019093169290920491820184900484028101840190945280845260609392830182828015620024c15780601f106200249557610100808354040283529160200191620024c1565b820191906000526020600020905b815481529060010190602001808311620024a357829003601f168201915b50939450600093505050505b815181101562002567578181815181101515620024e657fe5b9060200101517f010000000000000000000000000000000000000000000000000000000000000090047f0100000000000000000000000000000000000000000000000000000000000000028a89806001019a508151811015156200254657fe5b906020010190600160f860020a031916908160001a905350600101620024cd565b50506001909401935062001efb92505050565b50600060608060015b60045481116200263357600454811415620025dc5760056000828152602001908152602001600020600401546040516020018082815260200191505060405160208183030381529060405292508251840193506200262a565b60008181526005602090815260408083206004908101546001860185529382902001548151928301939093528181019290925281518082038301815260609091019091528051949094019391505b60010162002583565b506060836040519080825280601f01601f19166020018201604052801562002662576020820181803883390190505b50905080600060015b600454811162002841576004548114156200275057600081815260056020908152604080832060040154815180840191909152815180820390930183528101905296505b865181101562002749578681815181101515620026c857fe5b9060200101517f010000000000000000000000000000000000000000000000000000000000000090047f01000000000000000000000000000000000000000000000000000000000000000284848060010195508151811015156200272857fe5b906020010190600160f860020a031916908160001a905350600101620026af565b5062002838565b60008181526005602090815260408083206004908101546001860180865283862090920154835194850191909152838301528151808403830181526060909301909152909650905b865181101562002832578681815181101515620027b157fe5b9060200101517f010000000000000000000000000000000000000000000000000000000000000090047f01000000000000000000000000000000000000000000000000000000000000000285858060010196508151811015156200281157fe5b906020010190600160f860020a031916908160001a90535060010162002798565b50506001015b6001016200266b565b5060008280519060200120905060608a516040519080825280601f01601f1916602001820160405280156200287d576020820181803883390190505b509050806000805b8d518110156200291f578d818151811015156200289e57fe5b9060200101517f010000000000000000000000000000000000000000000000000000000000000090047f0100000000000000000000000000000000000000000000000000000000000000028383806001019450815181101515620028fe57fe5b906020010190600160f860020a031916908160001a90535060010162002885565b5081805190602001209b50600654600760006006548152602001908152602001600020600301819055508c60076000600654815260200190815260200160002060010190805190602001906200297792919062002a07565b508b60076000600654815260200190815260200160002060040181905550600854600760006006548152602001908152602001600020600501819055508d6007600060065481526020019081526020016000206000018190555083600760006006548152602001908152602001600020600201819055508b60088190555050505050505050505050505050505050565b828054600181600116156101000203166002900490600052602060002090601f016020900481019282601f1062002a4a57805160ff191683800117855562002a7a565b8280016001018555821562002a7a579182015b8281111562002a7a57825182559160200191906001019062002a5d565b5062002a8892915062002a8c565b5090565b62002aa991905b8082111562002a88576000815560010162002a93565b90565b6139b98062002abc6000396000f3fe6080604052600436106100b95763ffffffff7c01000000000000000000000000000000000000000000000000000000006000350416630ae9d38e81146100be57806317db127a146100e55780631c74915a146102a85780636610f9cf146102bd57806369e6601c1461056e5780636f05bbf4146107b6578063acecc1491461087b578063b7483a1b14610890578063cc11e16914610be6578063d5e2c5e414610eb5578063f3e2236f14611031578063f7ff50e214611046575b600080fd5b3480156100ca57600080fd5b506100d361105b565b60408051918252519081900360200190f35b3480156100f157600080fd5b506102a66004803603606081101561010857600080fd5b81019060208101813564010000000081111561012357600080fd5b82018360208201111561013557600080fd5b8035906020019184600183028401116401000000008311171561015757600080fd5b91908080601f01602080910402602001604051908101604052809392919081815260200183838082843760009201919091525092959493602081019350359150506401000000008111156101aa57600080fd5b8201836020820111156101bc57600080fd5b803590602001918460018302840111640100000000831117156101de57600080fd5b91908080601f016020809104026020016040519081016040528093929190818152602001838380828437600092019190915250929594936020810193503591505064010000000081111561023157600080fd5b82018360208201111561024357600080fd5b8035906020019184600183028401116401000000008311171561026557600080fd5b91908080601f016020809104026020016040519081016040528093929190818152602001838380828437600092019190915250929550611061945050505050565b005b3480156102b457600080fd5b506102a661127b565b3480156102c957600080fd5b506102e7600480360360208110156102e057600080fd5b503561294d565b6040518080602001806020018060200180602001898152602001888152602001806020018060200187810387528f818151815260200191508051906020019080838360005b8381101561034457818101518382015260200161032c565b50505050905090810190601f1680156103715780820380516001836020036101000a031916815260200191505b5087810386528e818151815260200191508051906020019080838360005b838110156103a757818101518382015260200161038f565b50505050905090810190601f1680156103d45780820380516001836020036101000a031916815260200191505b5087810385528d5181528d516020918201918f019080838360005b838110156104075781810151838201526020016103ef565b50505050905090810190601f1680156104345780820380516001836020036101000a031916815260200191505b5087810384528c5181528c516020918201918e019080838360005b8381101561046757818101518382015260200161044f565b50505050905090810190601f1680156104945780820380516001836020036101000a031916815260200191505b5087810383528951815289516020918201918b019080838360005b838110156104c75781810151838201526020016104af565b50505050905090810190601f1680156104f45780820380516001836020036101000a031916815260200191505b5087810382528851815288516020918201918a019080838360005b8381101561052757818101518382015260200161050f565b50505050905090810190601f1680156105545780820380516001836020036101000a031916815260200191505b509e50505050505050505050505050505060405180910390f35b34801561057a57600080fd5b506105986004803603602081101561059157600080fd5b5035612ce2565b60405180806020018060200180602001888152602001878152602001806020018060200186810386528d818151815260200191508051906020019080838360005b838110156105f15781810151838201526020016105d9565b50505050905090810190601f16801561061e5780820380516001836020036101000a031916815260200191505b5086810385528c5181528c516020918201918e019080838360005b83811015610651578181015183820152602001610639565b50505050905090810190601f16801561067e5780820380516001836020036101000a031916815260200191505b5086810384528b5181528b516020918201918d019080838360005b838110156106b1578181015183820152602001610699565b50505050905090810190601f1680156106de5780820380516001836020036101000a031916815260200191505b5086810383528851815288516020918201918a019080838360005b838110156107115781810151838201526020016106f9565b50505050905090810190601f16801561073e5780820380516001836020036101000a031916815260200191505b50868103825287518152875160209182019189019080838360005b83811015610771578181015183820152602001610759565b50505050905090810190601f16801561079e5780820380516001836020036101000a031916815260200191505b509c5050505050505050505050505060405180910390f35b3480156107c257600080fd5b506107e0600480360360208110156107d957600080fd5b5035612fed565b6040518087815260200180602001868152602001858152602001848152602001838152602001828103825287818151815260200191508051906020019080838360005b8381101561083b578181015183820152602001610823565b50505050905090810190601f1680156108685780820380516001836020036101000a031916815260200191505b5097505050505050505060405180910390f35b34801561088757600080fd5b506100d36130ac565b34801561089c57600080fd5b506100d3600480360360c08110156108b357600080fd5b8101906020810181356401000000008111156108ce57600080fd5b8201836020820111156108e057600080fd5b8035906020019184600183028401116401000000008311171561090257600080fd5b91908080601f016020809104026020016040519081016040528093929190818152602001838380828437600092019190915250929594936020810193503591505064010000000081111561095557600080fd5b82018360208201111561096757600080fd5b8035906020019184600183028401116401000000008311171561098957600080fd5b91908080601f01602080910402602001604051908101604052809392919081815260200183838082843760009201919091525092959493602081019350359150506401000000008111156109dc57600080fd5b8201836020820111156109ee57600080fd5b80359060200191846001830284011164010000000083111715610a1057600080fd5b91908080601f0160208091040260200160405190810160405280939291908181526020018383808284376000920191909152509295949360208101935035915050640100000000811115610a6357600080fd5b820183602082011115610a7557600080fd5b80359060200191846001830284011164010000000083111715610a9757600080fd5b91908080601f0160208091040260200160405190810160405280939291908181526020018383808284376000920191909152509295949360208101935035915050640100000000811115610aea57600080fd5b820183602082011115610afc57600080fd5b80359060200191846001830284011164010000000083111715610b1e57600080fd5b91908080601f0160208091040260200160405190810160405280939291908181526020018383808284376000920191909152509295949360208101935035915050640100000000811115610b7157600080fd5b820183602082011115610b8357600080fd5b80359060200191846001830284011164010000000083111715610ba557600080fd5b91908080601f0160208091040260200160405190810160405280939291908181526020018383808284376000920191909152509295506130b2945050505050565b348015610bf257600080fd5b506100d3600480360360a0811015610c0957600080fd5b810190602081018135640100000000811115610c2457600080fd5b820183602082011115610c3657600080fd5b80359060200191846001830284011164010000000083111715610c5857600080fd5b91908080601f0160208091040260200160405190810160405280939291908181526020018383808284376000920191909152509295949360208101935035915050640100000000811115610cab57600080fd5b820183602082011115610cbd57600080fd5b80359060200191846001830284011164010000000083111715610cdf57600080fd5b91908080601f0160208091040260200160405190810160405280939291908181526020018383808284376000920191909152509295949360208101935035915050640100000000811115610d3257600080fd5b820183602082011115610d4457600080fd5b80359060200191846001830284011164010000000083111715610d6657600080fd5b91908080601f0160208091040260200160405190810160405280939291908181526020018383808284376000920191909152509295949360208101935035915050640100000000811115610db957600080fd5b820183602082011115610dcb57600080fd5b80359060200191846001830284011164010000000083111715610ded57600080fd5b91908080601f0160208091040260200160405190810160405280939291908181526020018383808284376000920191909152509295949360208101935035915050640100000000811115610e4057600080fd5b820183602082011115610e5257600080fd5b80359060200191846001830284011164010000000083111715610e7457600080fd5b91908080601f016020809104026020016040519081016040528093929190818152602001838380828437600092019190915250929550613426945050505050565b348015610ec157600080fd5b50610edf60048036036020811015610ed857600080fd5b5035613709565b60405180806020018060200180602001868152602001858152602001848103845289818151815260200191508051906020019080838360005b83811015610f30578181015183820152602001610f18565b50505050905090810190601f168015610f5d5780820380516001836020036101000a031916815260200191505b5084810383528851815288516020918201918a019080838360005b83811015610f90578181015183820152602001610f78565b50505050905090810190601f168015610fbd5780820380516001836020036101000a031916815260200191505b50848103825287518152875160209182019189019080838360005b83811015610ff0578181015183820152602001610fd8565b50505050905090810190601f16801561101d5780820380516001836020036101000a031916815260200191505b509850505050505050505060405180910390f35b34801561103d57600080fd5b506100d36138e6565b34801561105257600080fd5b506100d36138ec565b60065481565b6004805460010190558051825184516040805191909201909201808352601f19601f820116830160200190915284918491849160609180156110aa576020820181803883390190505b509050806000805b86518110156111105786818151811015156110c957fe5b90602001015160f860020a900460f860020a0283838060010194508151811015156110f057fe5b906020010190600160f860020a031916908160001a9053506001016110b2565b5060005b855181101561117257858181518110151561112b57fe5b90602001015160f860020a900460f860020a02838380600101945081518110151561115257fe5b906020010190600160f860020a031916908160001a905350600101611114565b5060005b84518110156111d457848181518110151561118d57fe5b90602001015160f860020a900460f860020a0283838060010194508151811015156111b457fe5b906020010190600160f860020a031916908160001a905350600101611176565b508151602080840191909120600454600090815260058352604090208b51919261120192908d01906138f2565b5060045460009081526005602090815260409091208a5161122a926001909201918c01906138f2565b5060045460009081526005602090815260409091208951611253926002909201918b01906138f2565b5060048054600081815260056020526040902060038101919091550155505050505050505050565b6006805460019081019091556000905b600054811161168857600081815260026020818152604092839020805484516001821615610100026000190190911693909304601f810183900483028401830190945283835260609390918301828280156113275780601f106112fc57610100808354040283529160200191611327565b820191906000526020600020905b81548152906001019060200180831161130a57829003601f168201915b505050505090506060600260008481526020019081526020016000206001018054600181600116156101000203166002900480601f0160208091040260200160405190810160405280929190818152602001828054600181600116156101000203166002900480156113da5780601f106113af576101008083540402835291602001916113da565b820191906000526020600020905b8154815290600101906020018083116113bd57829003601f168201915b5050506000868152600260208181526040928390208201805484516001821615610100026000190190911693909304601f81018390048302840183019094528383529596506060959194509092508301828280156114795780601f1061144e57610100808354040283529160200191611479565b820191906000526020600020905b81548152906001019060200180831161145c57829003601f168201915b505050600087815260026020818152604092839020600301805484516001821615610100026000190190911693909304601f81018390048302840183019094528383529596506060959194509092508301828280156115195780601f106114ee57610100808354040283529160200191611519565b820191906000526020600020905b8154815290600101906020018083116114fc57829003601f168201915b505050600088815260026020818152604092839020600601805484516001821615610100026000190190911693909304601f81018390048302840183019094528383529596506060959194509092508301828280156115b95780601f1061158e576101008083540402835291602001916115b9565b820191906000526020600020905b81548152906001019060200180831161159c57829003601f168201915b505050600089815260026020818152604092839020600701805484516001821615610100026000190190911693909304601f81018390048302840183019094528383529596506060959194509092508301828280156116595780601f1061162e57610100808354040283529160200191611659565b820191906000526020600020905b81548152906001019060200180831161163c57829003601f168201915b50505050509050805182518451865188518a51010101010188019750505050505050808060010191505061128b565b5060015b60015481116119e95760008181526003602090815260409182902080548351601f600260001961010060018616150201909316929092049182018490048402810184019094528084526060939283018282801561172a5780601f106116ff5761010080835404028352916020019161172a565b820191906000526020600020905b81548152906001019060200180831161170d57829003601f168201915b505050505090506060600360008481526020019081526020016000206001018054600181600116156101000203166002900480601f0160208091040260200160405190810160405280929190818152602001828054600181600116156101000203166002900480156117dd5780601f106117b2576101008083540402835291602001916117dd565b820191906000526020600020905b8154815290600101906020018083116117c057829003601f168201915b5050506000868152600360209081526040918290206002908101805484516001821615610100026000190190911692909204601f8101849004840283018401909452838252959650606095909450925083018282801561187e5780601f106118535761010080835404028352916020019161187e565b820191906000526020600020905b81548152906001019060200180831161186157829003601f168201915b5050506000878152600360209081526040918290206005018054835160026001831615610100026000190190921691909104601f81018490048402820184019094528381529596506060959450925083018282801561191e5780601f106118f35761010080835404028352916020019161191e565b820191906000526020600020905b81548152906001019060200180831161190157829003601f168201915b5050506000888152600360209081526040918290206006018054835160026001831615610100026000190190921691909104601f8101849004840282018401909452838152959650606095945092508301828280156119be5780601f10611993576101008083540402835291602001916119be565b820191906000526020600020905b8154815290600101906020018083116119a157829003601f168201915b505050505090508051825184518651885101010101870196505050505050808060010191505061168c565b506060816040519080825280601f01601f191660200182016040528015611a17576020820181803883390190505b509050600081818060015b600054811161203f57600081815260026020818152604092839020805484516001821615610100026000190190911693909304601f81018390048302840183019094528383526060939091830182828015611abe5780601f10611a9357610100808354040283529160200191611abe565b820191906000526020600020905b815481529060010190602001808311611aa157829003601f168201915b50939450600093505050505b8151811015611b28578181815181101515611ae157fe5b90602001015160f860020a900460f860020a028685806001019650815181101515611b0857fe5b906020010190600160f860020a031916908160001a905350600101611aca565b506000828152600260208181526040928390206001908101805485519281161561010002600019011693909304601f8101839004830282018301909452838152606093909291830182828015611bbf5780601f10611b9457610100808354040283529160200191611bbf565b820191906000526020600020905b815481529060010190602001808311611ba257829003601f168201915b50939450600093505050505b8151811015611c29578181815181101515611be257fe5b90602001015160f860020a900460f860020a028786806001019750815181101515611c0957fe5b906020010190600160f860020a031916908160001a905350600101611bcb565b506000838152600260208181526040928390208201805484516001821615610100026000190190911693909304601f81018390048302840183019094528383526060939091830182828015611cbf5780601f10611c9457610100808354040283529160200191611cbf565b820191906000526020600020905b815481529060010190602001808311611ca257829003601f168201915b50939450600093505050505b8151811015611d29578181815181101515611ce257fe5b90602001015160f860020a900460f860020a028887806001019850815181101515611d0957fe5b906020010190600160f860020a031916908160001a905350600101611ccb565b50600084815260026020818152604092839020600301805484516001821615610100026000190190911693909304601f81018390048302840183019094528383526060939091830182828015611dc05780601f10611d9557610100808354040283529160200191611dc0565b820191906000526020600020905b815481529060010190602001808311611da357829003601f168201915b50939450600093505050505b8151811015611e2a578181815181101515611de357fe5b90602001015160f860020a900460f860020a028988806001019950815181101515611e0a57fe5b906020010190600160f860020a031916908160001a905350600101611dcc565b50600085815260026020818152604092839020600601805484516001821615610100026000190190911693909304601f81018390048302840183019094528383526060939091830182828015611ec15780601f10611e9657610100808354040283529160200191611ec1565b820191906000526020600020905b815481529060010190602001808311611ea457829003601f168201915b50939450600093505050505b8151811015611f2b578181815181101515611ee457fe5b90602001015160f860020a900460f860020a028a89806001019a50815181101515611f0b57fe5b906020010190600160f860020a031916908160001a905350600101611ecd565b50600086815260026020818152604092839020600701805484516001821615610100026000190190911693909304601f81018390048302840183019094528383526060939091830182828015611fc25780601f10611f9757610100808354040283529160200191611fc2565b820191906000526020600020905b815481529060010190602001808311611fa557829003601f168201915b50939450600093505050505b815181101561202c578181815181101515611fe557fe5b90602001015160f860020a900460f860020a028b8a806001019b5081518110151561200c57fe5b906020010190600160f860020a031916908160001a905350600101611fce565b505060019095019450611a229350505050565b5060015b60015481116125805760008181526003602090815260409182902080548351601f60026000196101006001861615020190931692909204918201849004840281018401909452808452606093928301828280156120e15780601f106120b6576101008083540402835291602001916120e1565b820191906000526020600020905b8154815290600101906020018083116120c457829003601f168201915b50939450600093505050505b815181101561214b57818181518110151561210457fe5b90602001015160f860020a900460f860020a02868580600101965081518110151561212b57fe5b906020010190600160f860020a031916908160001a9053506001016120ed565b506060600360008481526020019081526020016000206001018054600181600116156101000203166002900480601f0160208091040260200160405190810160405280929190818152602001828054600181600116156101000203166002900480156121f85780601f106121cd576101008083540402835291602001916121f8565b820191906000526020600020905b8154815290600101906020018083116121db57829003601f168201915b50939450600093505050505b815181101561226257818181518110151561221b57fe5b90602001015160f860020a900460f860020a02878680600101975081518110151561224257fe5b906020010190600160f860020a031916908160001a905350600101612204565b506000838152600360209081526040918290206002908101805484516001821615610100026000190190911692909204601f810184900484028301840190945283825260609391929091908301828280156122fe5780601f106122d3576101008083540402835291602001916122fe565b820191906000526020600020905b8154815290600101906020018083116122e157829003601f168201915b50939450600093505050505b815181101561236857818181518110151561232157fe5b90602001015160f860020a900460f860020a02888780600101985081518110151561234857fe5b906020010190600160f860020a031916908160001a90535060010161230a565b5060008481526003602090815260409182902060050180548351601f60026000196101006001861615020190931692909204918201849004840281018401909452808452606093928301828280156124015780601f106123d657610100808354040283529160200191612401565b820191906000526020600020905b8154815290600101906020018083116123e457829003601f168201915b50939450600093505050505b815181101561246b57818181518110151561242457fe5b90602001015160f860020a900460f860020a02898880600101995081518110151561244b57fe5b906020010190600160f860020a031916908160001a90535060010161240d565b5060008581526003602090815260409182902060060180548351601f60026000196101006001861615020190931692909204918201849004840281018401909452808452606093928301828280156125045780601f106124d957610100808354040283529160200191612504565b820191906000526020600020905b8154815290600101906020018083116124e757829003601f168201915b50939450600093505050505b815181101561256e57818181518110151561252757fe5b90602001015160f860020a900460f860020a028a89806001019a5081518110151561254e57fe5b906020010190600160f860020a031916908160001a905350600101612510565b50506001909401935061204392505050565b50600060608060015b6004548111612635576004548114156125df57600560008281526020019081526020016000206004015460405160200180828152602001915050604051602081830303815290604052925082518401935061262d565b60008181526005602090815260408083206004908101546001860185529382902001548151928301939093528181019290925281518082038301815260609091019091528051949094019391505b600101612589565b506060836040519080825280601f01601f191660200182016040528015612663576020820181803883390190505b50905080600060015b60045481116127c65760045481141561271257600081815260056020908152604080832060040154815180840191909152815180820390930183528101905296505b865181101561270c5786818151811015156126c557fe5b90602001015160f860020a900460f860020a0284848060010195508151811015156126ec57fe5b906020010190600160f860020a031916908160001a9053506001016126ae565b506127be565b60008181526005602090815260408083206004908101546001860180865283862090920154835194850191909152838301528151808403830181526060909301909152909650905b86518110156127b857868181518110151561277157fe5b90602001015160f860020a900460f860020a02858580600101965081518110151561279857fe5b906020010190600160f860020a031916908160001a90535060010161275a565b50506001015b60010161266c565b5060008280519060200120905060608a516040519080825280601f01601f191660200182016040528015612801576020820181803883390190505b509050806000805b8d51811015612867578d8181518110151561282057fe5b90602001015160f860020a900460f860020a02838380600101945081518110151561284757fe5b906020010190600160f860020a031916908160001a905350600101612809565b5081805190602001209b50600654600760006006548152602001908152602001600020600301819055508c60076000600654815260200190815260200160002060010190805190602001906128bd9291906138f2565b508b60076000600654815260200190815260200160002060040181905550600854600760006006548152602001908152602001600020600501819055508d6007600060065481526020019081526020016000206000018190555083600760006006548152602001908152602001600020600201819055508b60088190555050505050505050505050505050505050565b600260208181526000928352604092839020805484516001821615610100026000190190911693909304601f81018390048302840183019094528383529283918301828280156129de5780601f106129b3576101008083540402835291602001916129de565b820191906000526020600020905b8154815290600101906020018083116129c157829003601f168201915b505050505090806001018054600181600116156101000203166002900480601f016020809104026020016040519081016040528092919081815260200182805460018160011615610100020316600290048015612a7c5780601f10612a5157610100808354040283529160200191612a7c565b820191906000526020600020905b815481529060010190602001808311612a5f57829003601f168201915b50505060028085018054604080516020601f6000196101006001871615020190941695909504928301859004850281018501909152818152959695945090925090830182828015612b0e5780601f10612ae357610100808354040283529160200191612b0e565b820191906000526020600020905b815481529060010190602001808311612af157829003601f168201915b5050505060038301805460408051602060026001851615610100026000190190941693909304601f8101849004840282018401909252818152949594935090830182828015612b9e5780601f10612b7357610100808354040283529160200191612b9e565b820191906000526020600020905b815481529060010190602001808311612b8157829003601f168201915b505050505090806004015490806005015490806006018054600181600116156101000203166002900480601f016020809104026020016040519081016040528092919081815260200182805460018160011615610100020316600290048015612c485780601f10612c1d57610100808354040283529160200191612c48565b820191906000526020600020905b815481529060010190602001808311612c2b57829003601f168201915b5050505060078301805460408051602060026001851615610100026000190190941693909304601f8101849004840282018401909252818152949594935090830182828015612cd85780601f10612cad57610100808354040283529160200191612cd8565b820191906000526020600020905b815481529060010190602001808311612cbb57829003601f168201915b5050505050905088565b60036020908152600091825260409182902080548351601f60026000196101006001861615020190931692909204918201849004840281018401909452808452909291839190830182828015612d795780601f10612d4e57610100808354040283529160200191612d79565b820191906000526020600020905b815481529060010190602001808311612d5c57829003601f168201915b505050505090806001018054600181600116156101000203166002900480601f016020809104026020016040519081016040528092919081815260200182805460018160011615610100020316600290048015612e175780601f10612dec57610100808354040283529160200191612e17565b820191906000526020600020905b815481529060010190602001808311612dfa57829003601f168201915b50505060028085018054604080516020601f6000196101006001871615020190941695909504928301859004850281018501909152818152959695945090925090830182828015612ea95780601f10612e7e57610100808354040283529160200191612ea9565b820191906000526020600020905b815481529060010190602001808311612e8c57829003601f168201915b505050505090806003015490806004015490806005018054600181600116156101000203166002900480601f016020809104026020016040519081016040528092919081815260200182805460018160011615610100020316600290048015612f535780601f10612f2857610100808354040283529160200191612f53565b820191906000526020600020905b815481529060010190602001808311612f3657829003601f168201915b5050505060068301805460408051602060026001851615610100026000190190941693909304601f8101849004840282018401909252818152949594935090830182828015612fe35780601f10612fb857610100808354040283529160200191612fe3565b820191906000526020600020905b815481529060010190602001808311612fc657829003601f168201915b5050505050905087565b6007602090815260009182526040918290208054600180830180548651600293821615610100026000190190911692909204601f81018690048602830186019096528582529194929390929083018282801561308a5780601f1061305f5761010080835404028352916020019161308a565b820191906000526020600020905b81548152906001019060200180831161306d57829003601f168201915b5050505050908060020154908060030154908060040154908060050154905086565b60005481565b60008054600101815582518451865188518a516040805191909201909201909201909201808352601f19601f8201168301602001909152889188918891889188916060918015613109576020820181803883390190505b509050806000805b885181101561316d57888181518110151561312857fe5b90602001015160f860020a900460f860020a02838381518110151561314957fe5b906020010190600160f860020a031916908160001a90535060019182019101613111565b5060005b87518110156131cd57878181518110151561318857fe5b90602001015160f860020a900460f860020a0283838151811015156131a957fe5b906020010190600160f860020a031916908160001a90535060019182019101613171565b5060005b865181101561322d5786818151811015156131e857fe5b90602001015160f860020a900460f860020a02838381518110151561320957fe5b906020010190600160f860020a031916908160001a905350600191820191016131d1565b5060005b855181101561328d57858181518110151561324857fe5b90602001015160f860020a900460f860020a02838381518110151561326957fe5b906020010190600160f860020a031916908160001a90535060019182019101613231565b5060005b84518110156132ed5784818151811015156132a857fe5b90602001015160f860020a900460f860020a0283838151811015156132c957fe5b906020010190600160f860020a031916908160001a90535060019182019101613291565b506000828051906020012090508f600260008054815260200190815260200160002060000190805190602001906133259291906138f2565b508e600260008054815260200190815260200160002060010190805190602001906133519291906138f2565b508d6002600080548152602001908152602001600020600201908051906020019061337d9291906138f2565b508c600260008054815260200190815260200160002060030190805190602001906133a99291906138f2565b5060008054808252600260209081526040808420600481019390935560059092018490558254835291208d516133e7926006909201918f01906138f2565b506000805481526002602090815260409091208c5161340e926007909201918e01906138f2565b50506000549f9e505050505050505050505050505050565b600180548101905581518351855187516040805191909201909201909201808252601f19601f82011682016020019092526000918791879187918791606091908015613479576020820181803883390190505b509050806000805b87518110156134dd57878181518110151561349857fe5b90602001015160f860020a900460f860020a0283838151811015156134b957fe5b906020010190600160f860020a031916908160001a90535060019182019101613481565b5060005b865181101561353d5786818151811015156134f857fe5b90602001015160f860020a900460f860020a02838381518110151561351957fe5b906020010190600160f860020a031916908160001a905350600191820191016134e1565b5060005b855181101561359d57858181518110151561355857fe5b90602001015160f860020a900460f860020a02838381518110151561357957fe5b906020010190600160f860020a031916908160001a90535060019182019101613541565b5060005b84518110156135fd5784818151811015156135b857fe5b90602001015160f860020a900460f860020a0283838151811015156135d957fe5b906020010190600160f860020a031916908160001a905350600191820191016135a1565b506000828051906020012090508d60036000600154815260200190815260200160002060000190805190602001906136369291906138f2565b508c60036000600154815260200190815260200160002060010190805190602001906136639291906138f2565b5060015460009081526003602090815260409091208d5161368c926002909201918f01906138f2565b5060018054600081815260036020818152604080842092830194909455600490910185905592548152208c516136ca926005909201918e01906138f2565b5060015460009081526003602090815260409091208b516136f3926006909201918d01906138f2565b50506001549d9c50505050505050505050505050565b60056020908152600091825260409182902080548351601f600260001961010060018616150201909316929092049182018490048402810184019094528084529092918391908301828280156137a05780601f10613775576101008083540402835291602001916137a0565b820191906000526020600020905b81548152906001019060200180831161378357829003601f168201915b505050505090806001018054600181600116156101000203166002900480601f01602080910402602001604051908101604052809291908181526020018280546001816001161561010002031660029004801561383e5780601f106138135761010080835404028352916020019161383e565b820191906000526020600020905b81548152906001019060200180831161382157829003601f168201915b50505060028085018054604080516020601f60001961010060018716150201909416959095049283018590048502810185019091528181529596959450909250908301828280156138d05780601f106138a5576101008083540402835291602001916138d0565b820191906000526020600020905b8154815290600101906020018083116138b357829003601f168201915b5050505050908060030154908060040154905085565b60015481565b60045481565b828054600181600116156101000203166002900490600052602060002090601f016020900481019282601f1061393357805160ff1916838001178555613960565b82800160010185558215613960579182015b82811115613960578251825591602001919060010190613945565b5061396c929150613970565b5090565b61398a91905b8082111561396c5760008155600101613976565b9056fea165627a7a72305820002df549b7ea6122f5a065cc40bb6b90f3f2f9d56806626f8c73c38973b0b28300293078434133356237643931353435384546353430614465363036386446653246",
  "source": "pragma solidity ^ 0.5.0;\r\ncontract charity {\r\n\r\n  uint public charity_count = 0;\r\n\r\n\r\n  uint public org_count = 0;\r\n\r\n  struct charity_structre {\r\n    string name;\r\n    string description;\r\n    string bankAccount;\r\n    string bankName;\r\n    uint id;\r\n    bytes32 hash;\r\n    string address_of_charity;\r\n    string  ether_coins;\r\n\r\n\r\n  }\r\n\r\n  struct personOrOrganisation_structure {\r\n\r\n    string name;\r\n    string bankAccount;\r\n    string bankName;\r\n    uint id;\r\n    bytes32 hash;\r\n    string address_of_organisation;\r\n    string ether_coins;\r\n\r\n\r\n\r\n  }\r\n\r\n  constructor() public {\r\n\r\n      createCharity(\"anand_charity\", \"welcome to anand's charity, this is a default charity as I created this web page\",\"bankacc\",\"bankname\",\"0xCA35b7d915458EF540aDe6068dFe2F44E8fa733c\",\"0000\");\r\n\r\n      createOrganisation(\"anand_organisation\",\"bank account\",\"bank name\",\"0xCA35b7d915458EF540aDe6068dFe2F44E8fa733c\",\"0000\");\r\n\r\n      createTransaction(\"0x9E4Fe77bbA33b9a8597e65F88AC40D85b45D2D5E\",\"0x0863b46e51b958E9eFf366CcDc1E8f1e50915c85\",\"1\");\r\n\r\n      blockchain_function();\r\n  }\r\n\r\n  mapping(uint => charity_structre) public charitys;\r\n\r\n\r\n  mapping(uint => personOrOrganisation_structure) public org;\r\n\r\n  struct transactions {\r\n\r\n    string address_of_charity;\r\n    string address_of_organisation;\r\n    string amount_sent;\r\n    uint id;\r\n    bytes32 transaction_hash;\r\n\r\n  }\r\n\r\n  uint public transaction_count = 0;\r\n\r\n  mapping(uint => transactions) public transaction_dict;\r\n\r\n\r\n  uint public blockchain_count = 0;\r\n\r\n  struct blockchain_structure {\r\n\r\n      uint nonce;\r\n      bytes data;\r\n      bytes32 transaction_hash_add;\r\n      uint blockNumber;\r\n      bytes32 hash;\r\n      bytes32 previous_hash;\r\n  }\r\n\r\n  mapping(uint => blockchain_structure) public Blockchain;\r\n\r\n  bytes32 previousHash;\r\n\r\n  function createCharity(string memory _name, string memory _description, string memory _bankacc, string memory _bankname, string memory _address, string memory _ether_coins) public returns(uint){\r\n\r\n      charity_count++;\r\n      bytes memory name_byte = bytes(_name);\r\n      bytes memory description_byte = bytes(_description);\r\n      bytes memory bankacc_byte = bytes(_bankacc);\r\n      bytes memory bankname_byte = bytes(_bankname);\r\n      bytes memory address_byte = bytes(_address);\r\n      string memory lengthabc = new string(name_byte.length + description_byte.length + bankacc_byte.length + bankname_byte.length + address_byte.length);\r\n      bytes memory hash = bytes(lengthabc);\r\n      uint k = 0;\r\n      for(uint i =0;i < name_byte.length; i++){\r\n          hash[k] = name_byte[i];\r\n          k++;\r\n      }\r\n      for(uint i = 0;i < description_byte.length;i++){\r\n          hash[k] = description_byte[i];\r\n          k++;\r\n      }\r\n      for(uint i = 0;i < bankacc_byte.length;i++){\r\n          hash[k] = bankacc_byte[i];\r\n          k++;\r\n      }\r\n      for(uint i = 0;i < bankname_byte.length;i++){\r\n          hash[k] = bankname_byte[i];\r\n          k++;\r\n      }\r\n\r\n      for(uint i = 0;i < address_byte.length; i++ ){\r\n\r\n          hash[k] = address_byte[i];\r\n          k++;\r\n      }\r\n\r\n\r\n      bytes32 hash_address = keccak256(hash);\r\n      charitys[charity_count].name = _name;\r\n      charitys[charity_count].description = _description;\r\n      charitys[charity_count].bankAccount = _bankacc;\r\n      charitys[charity_count].bankName = _bankname;\r\n      charitys[charity_count].id = charity_count;\r\n      charitys[charity_count].hash = hash_address;\r\n      charitys[charity_count].address_of_charity = _address;\r\n      charitys[charity_count].ether_coins = _ether_coins;\r\n      //emit charityCreated(_name,_description,_bankacc,_bankname,charity_count,hash_address,_address);\r\n\r\n      return(charity_count);\r\n\r\n\r\n  }\r\n\r\n\r\n  function createOrganisation(string memory _name, string memory _bankacc, string memory _bankname, string memory _address, string memory _ether_coins) public returns(uint){\r\n\r\n    org_count ++;\r\n\r\n    bytes memory name_byte = bytes(_name);\r\n    bytes memory acc_byte = bytes(_bankacc);\r\n    bytes memory bankname_byte = bytes(_bankname);\r\n    bytes memory address_byte = bytes(_address);\r\n    string memory lengthabc = new string(name_byte.length + acc_byte.length + bankname_byte.length + address_byte.length );\r\n    bytes memory hash = bytes(lengthabc);\r\n\r\n    uint k = 0;\r\n\r\n    for(uint i = 0; i < name_byte.length;i++) {\r\n\r\n      hash[k] = name_byte[i];\r\n      k++;\r\n    }\r\n\r\n    for(uint i = 0; i < acc_byte.length; i++){\r\n\r\n      hash[k] = acc_byte[i];\r\n      k++;\r\n\r\n    }\r\n\r\n\r\n    for(uint i = 0; i < bankname_byte.length; i++) {\r\n\r\n      hash[k] = bankname_byte[i];\r\n      k++;\r\n    }\r\n\r\n\r\n    for(uint i = 0;i < address_byte.length; i++) {\r\n\r\n      hash[k] = address_byte[i];\r\n      k++;\r\n\r\n    }\r\n    bytes32 hash_address = keccak256(hash);\r\n\r\n    org[org_count].name = _name;\r\n    org[org_count].bankAccount = _bankacc;\r\n    org[org_count].bankName = _bankname;\r\n    org[org_count].id = org_count;\r\n    org[org_count].hash = hash_address;\r\n    org[org_count].address_of_organisation = _address;\r\n    org[org_count].ether_coins = _ether_coins;\r\n    return org_count;\r\n\r\n\r\n  }\r\n\r\nfunction createTransaction(string memory add_of_charity,string memory add_of_org,string memory amount) public {\r\n\r\n    transaction_count++;\r\n\r\n\r\n\r\n    bytes memory _address_of_charity = bytes(add_of_charity);\r\n    bytes memory _address_of_organisation = bytes(add_of_org);\r\n    bytes memory _amount = bytes(amount);\r\n\r\n    string memory length_abc = new string(_address_of_charity.length + _address_of_organisation.length + _amount.length);\r\n    bytes memory hash = bytes(length_abc);\r\n\r\n    uint k = 0;\r\n    for(uint i = 0; i < _address_of_charity.length; i++) {\r\n\r\n      hash[k++] = _address_of_charity[i];\r\n\r\n    }\r\n\r\n    for(uint i = 0; i < _address_of_organisation.length; i++) {\r\n\r\n      hash[k++] = _address_of_organisation[i];\r\n\r\n    }\r\n\r\n    for(uint i = 0; i < _amount.length; i++) {\r\n\r\n      hash[k++] = _amount[i];\r\n\r\n    }\r\n\r\n    bytes32 hash_address = keccak256(hash);\r\n    transaction_dict[transaction_count].address_of_charity = add_of_charity;\r\n    transaction_dict[transaction_count].address_of_organisation = add_of_org;\r\n    transaction_dict[transaction_count].amount_sent = amount;\r\n    transaction_dict[transaction_count].id = transaction_count;\r\n    transaction_dict[transaction_count].transaction_hash = hash_address;\r\n\r\n\r\n\r\n}\r\n/*\r\nfunction substring(string str, uint startIndex, uint endIndex) public returns (string) {\r\n    bytes memory strBytes = bytes(str);\r\n    bytes memory result = new bytes(endIndex-startIndex);\r\n    for(uint i = startIndex; i < endIndex; i++) {\r\n        result[i-startIndex] = strBytes[i];\r\n    }\r\n    return string(result);\r\n}\r\n*/\r\nfunction blockchain_function() public {\r\n\r\n\r\n\r\n    blockchain_count++;\r\n    uint len = 0;\r\n    for(uint i = 1;i<=charity_count;i++){\r\n        bytes memory name_charity = bytes(charitys[i].name);\r\n        bytes memory description = bytes(charitys[i].description);\r\n        bytes memory bankacc = bytes(charitys[i].bankAccount);\r\n        bytes memory bankname = bytes(charitys[i].bankName);\r\n        bytes memory add_of_charity_byte = bytes(charitys[i].address_of_charity);\r\n        bytes memory amount_byte = bytes(charitys[i].ether_coins);\r\n        len += name_charity.length + description.length + bankacc.length + bankname.length + add_of_charity_byte.length + amount_byte.length;\r\n    }\r\n    for(uint i =1;i<=org_count;i++){\r\n        bytes memory name_org = bytes(org[i].name);\r\n        bytes memory bankacc_org = bytes(org[i].bankAccount);\r\n        bytes memory bankname_org = bytes(org[i].bankName);\r\n        bytes memory address_of_organisation_byte = bytes(org[i].address_of_organisation);\r\n        bytes memory ether_coins_byte = bytes(org[i].ether_coins);\r\n        len += name_org.length + bankacc_org.length + bankname_org.length + address_of_organisation_byte.length + ether_coins_byte.length;\r\n    }\r\n    string memory lengthabcd = new string(len);\r\n\r\n    uint nonceValue = 0;\r\n    bytes memory dataString = bytes(lengthabcd) ;\r\n    bytes32 hash_addressNew;\r\n\r\n    uint j = 0;\r\n\r\n    for(uint i = 1;i <= charity_count; i++){\r\n      bytes memory name_charity = bytes(charitys[i].name);\r\n      for(uint m=0;m<name_charity.length;m++){\r\n        dataString[j++] = name_charity[m];\r\n      }\r\n\r\n      bytes memory description = bytes(charitys[i].description);\r\n      for(uint m=0;m<description.length;m++){\r\n        dataString[j++] = description[m];\r\n      }\r\n\r\n      bytes memory bankacc = bytes(charitys[i].bankAccount);\r\n      for(uint m=0;m<bankacc.length;m++){\r\n        dataString[j++] = bankacc[m];\r\n      }\r\n\r\n      bytes memory bankname = bytes(charitys[i].bankName);\r\n      for(uint m=0;m<bankname.length;m++){\r\n        dataString[j++] = bankname[m];\r\n      }\r\n\r\n      bytes memory add_of_charity_byte = bytes(charitys[i].address_of_charity);\r\n      for(uint m=0;m<add_of_charity_byte.length;m++){\r\n        dataString[j++] = add_of_charity_byte[m];\r\n      }\r\n\r\n\r\n      bytes memory amount_byte = bytes(charitys[i].ether_coins);\r\n      for(uint m=0;m<amount_byte.length;m++){\r\n        dataString[j++] = amount_byte[m];\r\n      }\r\n      }\r\n\r\n    for(uint i = 1;i <= org_count; i++){\r\n\r\n\r\n      bytes memory name_org = bytes(org[i].name);\r\n      for(uint m=0;m<name_org.length;m++){\r\n        dataString[j++] = name_org[m];\r\n      }\r\n\r\n      bytes memory bankacc_org = bytes(org[i].bankAccount);\r\n      for(uint m=0;m<bankacc_org.length;m++){\r\n        dataString[j++] = bankacc_org[m];\r\n      }\r\n\r\n      bytes memory bankname_org = bytes(org[i].bankName);\r\n      for(uint m=0;m<bankname_org.length;m++){\r\n        dataString[j++] = bankname_org[m];\r\n      }\r\n\r\n      bytes memory address_of_organisation_byte = bytes(org[i].address_of_organisation);\r\n      for(uint m=0;m<address_of_organisation_byte.length;m++){\r\n        dataString[j++] = address_of_organisation_byte[m];\r\n      }\r\n\r\n      bytes memory ether_coins_byte = bytes(org[i].ether_coins);\r\n      for(uint m=0;m<ether_coins_byte.length;m++){\r\n        dataString[j++] = ether_coins_byte[m];\r\n      }\r\n\r\n    }\r\nuint another_len = 0;\r\nbytes memory temp;\r\nbytes memory temp2;\r\n    for(uint i = 1;i<=transaction_count;i++){\r\n      if(i==transaction_count){\r\n          temp = abi.encode(transaction_dict[i].transaction_hash);\r\n          another_len += temp.length;\r\n      }\r\n      else {\r\n          uint z = i+1;\r\n          temp2 = abi.encode(transaction_dict[i].transaction_hash,transaction_dict[z].transaction_hash);\r\n          another_len += temp2.length;\r\n      }\r\n    }\r\n\r\n    string memory something = new string(another_len);\r\n\r\n    bytes memory hash_total = bytes(something);\r\n    uint l = 0;\r\n    for(uint i = 1; i<=transaction_count;i++) {\r\n\r\n       if(i==transaction_count){\r\n          temp = abi.encode(transaction_dict[i].transaction_hash);\r\n          for(uint m=0;m<temp.length;m++){\r\n            hash_total[l++] = temp[m];\r\n          }\r\n       }\r\n       else {\r\n       uint g = i+1;\r\n        temp2 = abi.encode(transaction_dict[i].transaction_hash,transaction_dict[g].transaction_hash);\r\n        for(uint m=0;m<temp2.length;m++){\r\n          hash_total[l++] = temp2[m];\r\n        }\r\n        i++;\r\n       }\r\n\r\n    }\r\n\r\n\r\n    bytes32 transaction_hash_address = keccak256(hash_total);\r\n\r\n//for hash calculation....\r\n\r\n  string memory lengthabc = new string(dataString.length);\r\n  bytes memory hashNew = bytes(lengthabc);\r\n  uint k =0;\r\n  for(uint i = 0;i<dataString.length;i++){\r\n    hashNew[k++] = dataString[i];\r\n  }\r\n  hash_addressNew = keccak256(hashNew);\r\n\r\n\r\n    Blockchain[blockchain_count].blockNumber = blockchain_count;\r\n    Blockchain[blockchain_count].data = dataString;\r\n    Blockchain[blockchain_count].hash = hash_addressNew;\r\n    Blockchain[blockchain_count].previous_hash = previousHash;\r\n    Blockchain[blockchain_count].nonce = nonceValue;\r\n    Blockchain[blockchain_count].transaction_hash_add = transaction_hash_address;\r\n    previousHash = hash_addressNew;\r\n    }\r\n\r\n}\r\n",
  "sourcePath": "D:/blockchain_final/blockchain-project/contracts/charity.sol",
  "compiler": {
    "name": "solc",
    "version": "0.5.0+commit.1d4f565a.Emscripten.clang"
  },
  "schemaVersion": "3.0.2",
  "updatedAt": "2020-07-11T17:19:27.162Z",
  "devdoc": {
    "methods": {}
  },
  "userdoc": {
    "methods": {}
  }
}